:040000000201563271
:03000B0002015D92
:0300110002000EDC
:03000E0002012CC0
:20001400E52B7003120219852BE060FB20E7F8152BE52970031202198529E060FB20E7F85C
:200034001529C2AF1203E3E58260341203F5E582F5256023E52D2430F8A625E52D04F52D9B
:200054007403B52D03752D00D2AF0529052A1203E3E58260AB80F7D2AF0529052B80A1D2FD
:20007400AF0529052B8099E52B7003120219852BE060FB20E7F8152BE52970031202198539
:2000940029E060FB20E7F81529C2AF120487E5826034120492E582F5256023E52D2430F898
:2000B400A625E52D04F52D7403B52D03752D00D2AF0529052A120487E58260AB80F7D2AF46
:2000D4000529052B80A1D2AF0529052B8099E52A7003120219852AE060FB20E7F8152AE5D9
:2000F4002970031202198529E060FB20E7F81529C2AFE52C2430F9878212038012031DE579
:200114008260F9E52C04F52C7403B52C03752C00D2AF0529052B80B612048112032175293E
:2001340001752A00752B03752D00752C0090001412019390007B1201939000E21201930210
:0D015400026E020161222222220202C73245
:2001610075203F75214F75225F75236F75280075890075A882D28C90012C120193858224A2
:20018100E5242420F98781D0D0D083D082D0F0D0E022C2AF7527007404B52702802AAF2756
:2001A1008FF005F07F017E008006EF2FFFEE33FED5F0F7AC287D00EC5207ED5206EF4E60D6
:2001C10007E52704F52780CF7404B527028043AF278FF005F07401800225E0D5F0FBFFAED0
:2001E100284EF528858125E5272420F98781C082C08375E000C0E0C0E0C0E0C0E0E527FF8A
:20020100C40354F8F526C026E5272420F8A681852581D2AF85278222C2AFC0E0C0F0C0825B
:20022100C083C0D0E5242420F8A681AF248FF005F07401800225E0D5F0FBF525E52404F55F
:2002410024E525FF25E0F5257404B52406752400752501E525552860E3E5242420F98781AE
:20026100D0D0D083D082D0F0D0E0D2AF22C2AFAF248FF005F07401800225E0D5F0FBF4AE0F
:20028100285EF528AF248FF005F07401800225E0D5F0FBF525E52404F524E525FF25E0F574
:2002A100257404B52406752400752501E525552860E3E5242420F98781D0D0D083D082D060
:2002C100F0D0E0D2AF22C2AFC0E0C0F0C082C083C0D0E5242420F8A681AF248FF005F074DD
:2002E10001800225E0D5F0FBF525E52404F524E525FF25E0F5257404B524067524007525C3
:1C03010001E525552860E3E5242420F98781D0D0D083D082D0F0D0E0D2AF32223D
:20031D00853A822212035675820712033475820F120334753A0122AF82753A0074F05FF5F2
:20033D0090D292C292EFC454F0F590D292C2927582281203DF753A0122753A00759020D299
:20035D0092C2927582281203DFD292C2927582281203DFD297D292C2927582281203DF7513
:20037D003A0122AF82753A0074F05F4408F590D293D292C292EFC454F0FF74084FF590D25A
:20039D0092C2927582281203DF753A0122AD82AE83AFF08D828E838FF012050EFCA3AD82E4
:2003BD00AE83EC601C8D828E838FF012050EF582C007C006C005120380D005D006D0078063
:0603DD00D222D582FD22B0
:2003E30074FFB5A00474018001E4B40100E433F58222AEA07F00EEF4FEEFF4EE30E70475E1
:20040300823722AEA07F00EEF4FEEFF4EE30E60475823622AEA07F00EEF4FEEFF4EE30E584
:200423000475823522AEA07F00EEF4FEEFF4EE30E40475823422AEA07F00EEF4FEEFF4EE06
:2004430030E30475823322AEA07F00EEF4FEEFF4EE30E20475823222AEA07F00EEF4FEEFBB
:1E046300F4EE30E10475823122AEA07F00EEF4FEEFF4EE30E004758230227582002246
:20048100D2B37580F0227580F0A2B3B3E433F582227580F774B7B580047582312274D7B598
:2004A10080047582322274E7B58004758233227580FB74BBB580047582342274DBB580045F
:2004C1007582352274EBB58004758236227580FD74BDB580047582372274DDB580047582B9
:2004E100382274EDB58004758239227580FE74BEB5800475822A2274DEB580047582302240
:0D05010074EEB580047582232275820022FD
:1C050E0020F71430F6148883A88220F507E6A88375830022E280F7E49322E022FC
:00000001FF
