:0400000002009C322C
:03000B000200A34D
:0300110002000EDC
:03000E0002008469
:20001400E52D04F5257410B52503752500E52CB5250280F9C2AFE52D2430F9AF2E74412FAA
:20003400F7E52D04F52D7410B52D03752D00E52E04F52E741AB52E03752E00D2AF80C1431C
:200054008920758DFA759850D28EE52DB52C0280F9C2AFE52C2430F9879910990280FBE5C2
:200074002C04F52C7410B52C03752C00D2AF80DA752D00752C00752E009000141200D99032
:1300940000531200D90201B40200A72222222202020D32F0
:2000A70075203F75214F75225F75236F75280075890075A882D28C9000841200D9858224C1
:2000C700E5242420F98781D0D0D083D082D0F0D0E022C2AF7527007404B52702802AAF2711
:2000E7008FF005F07F017E008006EF2FFFEE33FED5F0F7AC287D00EC5207ED5206EF4E6091
:2001070007E52704F52780CF7404B527028043AF278FF005F07401800225E0D5F0FBFFAE8A
:20012700284EF528858125E5272420F98781C082C08375E000C0E0C0E0C0E0C0E0E527FF44
:20014700C40354F8F526C026E5272420F8A681852581D2AF85278222C2AFC0E0C0F0C08216
:20016700C083C0D0E5242420F8A681AF248FF005F07401800225E0D5F0FBF525E52404F51A
:2001870024E525FF25E0F5257404B52406752400752501E525552860E3E5242420F9878169
:2001A700D0D0D083D082D0F0D0E0D2AF22C2AFAF248FF005F07401800225E0D5F0FBF4AECA
:2001C700285EF528AF248FF005F07401800225E0D5F0FBF525E52404F524E525FF25E0F52F
:2001E700257404B52406752400752501E525552860E3E5242420F98781D0D0D083D082D01B
:20020700F0D0E0D2AF22C2AFC0E0C0F0C082C083C0D0E5242420F8A681AF248FF005F07497
:2002270001800225E0D5F0FBF525E52404F524E525FF25E0F5257404B5240675240075257D
:1C02470001E525552860E3E5242420F98781D0D0D083D082D0F0D0E0D2AF3222F8
:00000001FF
