:030000000200906B
:03000600020003F2
:0300030002007880
:20000900E52DFF04F5257410B52503752500E52CB5250512014580F6E52D2430F9AF2E743F
:20002900412FF7E52D04F52D7410B52D03752D00E52E04F52E741AB52EC6752E0080C17543
:200049008920758DFA759850D28EE52DB52C0512014580F6E52C2430F9879910990280FBCB
:20006900E52C04F52C7410B52CE0752C0080DB752D00752C00752E009000091200C190001E
:0E008900481200C10201960200972222222294
:2000970075203F75214F75225F75236F7528009000781200C1858224E5242420F98781D0D2
:2000B700D0D083D082D0F0D0E0227527007404B52702802AAF278FF005F07F017E008006B8
:2000D700EF2FFFEE33FED5F0F7AC287D00EC5207ED5206EF4E6007E52704F52780CF74049F
:2000F700B5270485278222AF278FF005F07401800225E0D5F0FBFFAE284EF528858125E563
:20011700272420F98781C082C08375E000C0E0C0E0C0E0C0E0E527FFC40354F8F526C026E3
:20013700E5272420F8A68185258185278222C0E0C0F0C082C083C0D0E5242420F8A681AF3E
:20015700248FF005F07401800225E0D5F0FBF525E52404F524E525FF25E0F5257404B5247B
:2001770006752400752501E525552860E3E5242420F98781D0D0D083D082D0F0D0E022AF90
:20019700248FF005F07401800225E0D5F0FBF4AE285EF528AF248FF005F07401800225E06C
:2001B700D5F0FBF525E52404F524E525FF25E0F5257404B52406752400752501E5255528EE
:1401D70060E3E5242420F98781D0D0D083D082D0F0D0E022AC
:00000001FF
