:0400000002012432A3
:03000B0002012BC4
:0300110002000EDC
:03000E000200F4F9
:200014008533E060FB20E7F81533852BE060FB20E7F8152B8529E060FB20E7F81529C2AFD1
:20003400E52D2430F9AF2E74412FF7E52D04F52D7403B52D03752D00E52E04F52E741AB5E2
:200054002E03752E00D2AF0529052A053480B18534E060FB20E7F81534852BE060FB20E742
:20007400F8152B8529E060FB20E7F81529C2AFE52D2430F9AF2F74302FF7E52D04F52D74EA
:2000940003B52D03752D00E52F04F52F740AB52F03752F00D2AF0529052A053380B143896A
:2000B40020758DFA759850D28E852AE060FB20E7F8152A8529E060FB20E7F81529C2AFE5AF
:2000D4002C2430F9879910990280FBE52C04F52C7403B52C03752C00D2AF0529052B80C9F3
:2000F400752901752A00752B03753301753400752D00752C00752E00752F00900014120178
:1B011400619000631201619000B212016102023C02012F22222222020295328D
:20012F0075203F75214F75225F75236F75280075890075A882D28C9000F41201618582243F
:20014F00E5242420F98781D0D0D083D082D0F0D0E022C2AF7527007404B52702802AAF2788
:20016F008FF005F07F017E008006EF2FFFEE33FED5F0F7AC287D00EC5207ED5206EF4E6008
:20018F0007E52704F52780CF7404B527028043AF278FF005F07401800225E0D5F0FBFFAE02
:2001AF00284EF528858125E5272420F98781C082C08375E000C0E0C0E0C0E0C0E0E527FFBC
:2001CF00C40354F8F526C026E5272420F8A681852581D2AF85278222C2AFC0E0C0F0C0828E
:2001EF00C083C0D0E5242420F8A681AF248FF005F07401800225E0D5F0FBF525E52404F592
:20020F0024E525FF25E0F5257404B52406752400752501E525552860E3E5242420F98781E0
:20022F00D0D0D083D082D0F0D0E0D2AF22C2AFAF248FF005F07401800225E0D5F0FBF4AE41
:20024F00285EF528AF248FF005F07401800225E0D5F0FBF525E52404F524E525FF25E0F5A6
:20026F00257404B52406752400752501E525552860E3E5242420F98781D0D0D083D082D092
:20028F00F0D0E0D2AF22C2AFC0E0C0F0C082C083C0D0E5242420F8A681AF248FF005F0740F
:2002AF0001800225E0D5F0FBF525E52404F524E525FF25E0F5257404B524067524007525F5
:1C02CF0001E525552860E3E5242420F98781D0D0D083D082D0F0D0E0D2AF322270
:00000001FF
