:040000000200BA320E
:03000B000200C12F
:0300110002000EDC
:03000E0002009954
:20001400852BE060FB20E7F8152B8529E060FB20E7F81529C2AFE52D2430F9AF2E74412FEB
:20003400F7E52D04F52D7403B52D03752D00E52E04F52E741AB52E03752E00D2AF0529057A
:200054002A80BD438920758DFA759850D28E852AE060FB20E7F8152A8529E060FB20E7F870
:200074001529C2AFE52C2430F9879910990280FBE52C04F52C7403B52C03752C00D2AF0561
:2000940029052B80C9752901752A00752B03752D00752C00752E009000141200F79000574F
:1100B4001200F70201D20200C52222222202022B32AD
:2000C50075203F75214F75225F75236F75280075890075A882D28C9000991200F785822470
:2000E500E5242420F98781D0D0D083D082D0F0D0E022C2AF7527007404B52702802AAF27F3
:200105008FF005F07F017E008006EF2FFFEE33FED5F0F7AC287D00EC5207ED5206EF4E6072
:2001250007E52704F52780CF7404B527028043AF278FF005F07401800225E0D5F0FBFFAE6C
:20014500284EF528858125E5272420F98781C082C08375E000C0E0C0E0C0E0C0E0E527FF26
:20016500C40354F8F526C026E5272420F8A681852581D2AF85278222C2AFC0E0C0F0C082F8
:20018500C083C0D0E5242420F8A681AF248FF005F07401800225E0D5F0FBF525E52404F5FC
:2001A50024E525FF25E0F5257404B52406752400752501E525552860E3E5242420F987814B
:2001C500D0D0D083D082D0F0D0E0D2AF22C2AFAF248FF005F07401800225E0D5F0FBF4AEAC
:2001E500285EF528AF248FF005F07401800225E0D5F0FBF525E52404F524E525FF25E0F511
:20020500257404B52406752400752501E525552860E3E5242420F98781D0D0D083D082D0FC
:20022500F0D0E0D2AF22C2AFC0E0C0F0C082C083C0D0E5242420F8A681AF248FF005F07479
:2002450001800225E0D5F0FBF525E52404F524E525FF25E0F5257404B5240675240075255F
:1C02650001E525552860E3E5242420F98781D0D0D083D082D0F0D0E0D2AF3222DA
:00000001FF
